:020000040800F2
:10000000B02D0020DD1B0008B1040008B304000877
:10001000B7040008BB040008BF040008000000008B
:10002000000000000000000000000000C304000801
:10003000C504000800000000C7040008C904000847
:10004000F71B0008F71B0008F71B0008F71B000848
:10005000F71B0008F71B0008F71B0008F71B000838
:10006000F71B0008F71B0008F71B0008F71B000828
:10007000F71B0008F71B0008F71B0008F71B000818
:10008000F71B0008F71B0008F71B0008F71B000808
:10009000F71B0008F71B0008F71B0008F71B0008F8
:1000A000F71B0008F71B0008F71B0008F71B0008E8
:1000B000F71B0008F71B0008F71B0008F71B0008D8
:1000C000F71B0008F71B0008F71B0008F71B0008C8
:1000D000F71B0008F71B0008F71B0008F71B0008B8
:1000E000F71B0008F71B0008F71B000800F002F8D8
:1000F00000F03FF80AA090E8000C82448344AAF183
:100100000107DA4501D100F034F8AFF2090EBAE880
:100110000F0013F0010F18BFFB1A43F0010318473B
:10012000EC3600000C370000103A24BF78C878C1C4
:10013000FAD8520724BF30C830C144BF04680C60ED
:10014000704700000023002400250026103A28BF35
:1001500078C1FBD8520728BF30C148BF0B60704739
:10016000642902F0A383002070471FB51FBD10B59E
:1001700010BD02F069FC1146FFF7F7FF00F008F828
:1001800002F087FC03B4FFF7F2FF03BC01F0B0FC00
:100190008EB04FF0000A3C26602701F0A3FC01F06E
:1001A00037FC4FF4E13001F0B2FC01F0A3FB9FA05B
:1001B00002F028FB00F01AFD00221146104601F063
:1001C00025FB01220021102001F020FB022200214A
:1001D000402001F01BFB03220021502001F016FB00
:1001E000002408E00020934941F82400924941F896
:1001F0002400601C84B2B4F5FA7FF3DB4FF4FA708C
:100200008E49086010E100240025DFF83482642460
:1002100024E0894850F82410A4F16400864A42F88A
:100220002010844850F82410A4F16400814A42F858
:100230002010B4F5C87F0FDD104650F8240040456B
:1002400002D2104650F824807A4850F82400A84280
:1002500002D9784850F82450601C84B2B4F5FA7F73
:10026000D7DBA5EB08090E20B9FBF0F94FF0000A27
:100270004FF4C8746DE00398401CC0B2039000BFF7
:10028000704800680128FBD00CA9072000F061FC31
:100290009DF830008007800B9DF8311040EA012066
:1002A0009DF832100843644941F824009DF833005A
:1002B0008007800B9DF8341040EA01209DF835102E
:1002C00008435C4941F82400084650F82400B0F582
:1002D000A83F2AD9084650F82400B0F5403F24D260
:1002E000084650F82400A84205D9084650F82400D2
:1002F00000F580750EE04F4850F82400404509D2C3
:100300004C4850F82400A0F58078A5EB08090E2091
:10031000B9FBF0F9474850F82400281AB0FBF9F06F
:100320004FFA80FB4FF0010A03E04FF0010B4FF052
:10033000000ABBF1100F01DD4FF0100B03980428E9
:1003400005D10BF0FF0001F093FA00200390601C30
:1003500084B2B4F5FA7F8EDBBAF1000F0CD03A48C4
:100360003A493B4A3B4BCDE900210290324A33489F
:100370000168304800F0A4FDBAF1000F0CD03548F8
:100380000068642808DA33480068462804DD2F48EE
:1003900006783048077801E0002600272C4890F9BD
:1003A00000003B460090284890F9002031462AA0E2
:1003B00002F028FA06B1D7B931A104A802F02EFA4A
:1003C00004AA0221002001F040F932A104A802F0A1
:1003D00025FA04AA0421002001F037F932480670FA
:1003E000477002220146314801F0DAFB1CE0202070
:1003F0000323324602210090002001F09EF92020C4
:1004000002233A4619460090402001F096F9252231
:1004100004216A2001F0E6F82348067047700222A2
:100420000146224801F0BCFBEDE6000073746172E6
:10043000740000005000002020080020040000206C
:10044000FFFF030024812142110000200C00002046
:1004500010000020080000206469735F6872203D6E
:1004600020256420282564292C206469735F73701B
:100470006F32203D20256420282564290D0A0000C4
:10048000202020202020202020202020202020206C
:10049000000000002D2D2D2D202020202D2D2D2D74
:1004A0002020202000000000000000200038014033
:1004B000704700BFFEE700BFFEE700BFFEE700BFDA
:1004C000FEE7704770477047704700000CB500208A
:1004D000019000906C48006840F480306A490860E0
:1004E00000BF6948006800F4003000900198401C8B
:1004F0000190009818B90198B0F5A06FF1D1624849
:10050000006800F4003010B10120009001E00020EC
:1005100000900098012843D15C48006840F010002A
:100520005A4908600846006820F003000860084641
:10053000006840F002000860534840685249486033
:100540000846406848600846406840F4806048605B
:100550000846406820F47C1048600846406840F433
:10056000E81048600846006840F08070086000BFEE
:100570004548006800F000700028F9D04248406803
:1005800020F00300404948600846406840F00200FF
:10059000486000BF3C48406800F00C000828F9D1D2
:1005A0000CBD10B5FFF792FF10BD10B536480068BE
:1005B00040F001003449086008464068344908406A
:1005C0003149486008460068324908402E490860B1
:1005D0000846006820F4802008600846406820F43F
:1005E000FE0048604FF41F008860FFF7DAFF4FF00D
:1005F00000602949086010BD10B5002100200022CC
:10060000214B5B6803F00C0121B1042906D00829B5
:1006100028D107E0214B224C236027E01F4B204CC0
:10062000236023E0184B5B6803F47010164B5B6883
:1006300003F48032022303EB904022B9194B434369
:10064000174C23600DE0104B5B6803F4003323B1BB
:10065000144B4343124C236003E0104B4343104CB4
:10066000236003E00D4B0E4C236000BF00BF064B20
:100670005B68C3F303130C4CE15C094B1B68CB4074
:10068000074C236010BD0000001002400020024013
:100690000000FFF8FFFFF6FE08ED00E000127A0010
:1006A0001400002000093D001800002008B50121B9
:1006B000082001F0CFFDC020ADF8000014208DF817
:1006C000030003208DF802006946CF4801F006FBC5
:1006D0000120CE490860CE49C1F89C0108BD10B583
:1006E000C948006820F07040C749086008460068A3
:1006F00040F0E04008600120C449091D0860C44979
:10070000C1F898010A2001F09CF90020BF49091D99
:1007100008600A2001F095F90020BD49C1F8980150
:1007200010BD10B5B848006820F07040B6490860A8
:100730000846006840F0E04008600020B3490860C7
:10074000B349C1F89C010A2001F07BF90120AF49AF
:100750000860AF49C1F89C010A2001F072F910BD90
:1007600010B50024A848006820F07040A649086031
:100770000846006840F0804008600120A349091D38
:100780000860052001F05DF90120A149C1F8980138
:10079000052001F056F907E0601CC4B2FA2C03DD15
:1007A000FFF7BFFF012010BD98487C380068002883
:1007B000F2D19649086000BFF5E710B500209349D3
:1007C00008609148006820F070408F490860084632
:1007D000006840F0E040086000208D49C1F89C01AD
:1007E0000A2001F02EF90120884908600A2001F052
:1007F00028F900208649C1F8980110BD10B50020E5
:10080000824908608048006820F070407E49086096
:100810000846006840F0E040086001207C49C1F8CB
:100820009C010A2001F00DF90120784908600A2096
:1008300001F007F900207649C1F8980110BD70B5A4
:1008400004467148006820F070406F49086008460F
:10085000006840F0E040086000206C490860002516
:1008600017E0E0096949091D08606006040E0A20C6
:1008700001F0E7F801206649C1F898010A2001F06B
:10088000E0F80020614908600A2001F0DAF8681CED
:10089000C5B2082DE5DB70BD70B5054600245A4889
:1008A000006820F07040584908600846006840F031
:1008B00080400860002616E00020544908600520AA
:1008C00001F0BFF801205249C1F898016006040EFA
:1008D0004E487C38006808B1601CC4B2052001F0A5
:1008E000B0F8701CC6B2082EE6DB15B9FFF786FF1C
:1008F00001E0FFF762FF204670BD2DE9F041074699
:100900000D461646FFF7EBFE3846FFF798FFFFF758
:1009100027FF002406E0285DFFF791FFFFF720FF87
:10092000601CC4B2B442F6DBFFF7FBFE0A2001F004
:10093000ACF8BDE8F0812DE9F04107468846144641
:100940001D46FFF7CCFE3846FFF779FFFFF708FF9B
:100950004046FFF774FFFFF703FF47F00100FFF782
:100960006EFFFFF7FDFE002605E00120FFF794FF74
:10097000A055701CC6B2681EB042F6DC0020FFF71E
:100980008BFF691E6054FFF7CCFE0A2001F07DF852
:10099000BDE8F08170B504460D461646FFF79FFE90
:1009A0002046FFF74CFFFFF7DBFE2846FFF747FF27
:1009B000FFF7D6FEFFF793FE44F00100FFF73FFF7D
:1009C000FFF7CEFE0020FFF767FF3070FFF7A9FEAC
:1009D00070BD70B506460C461546FFF780FE3046E2
:1009E000FFF72DFFFFF7BCFE2046FFF728FFFFF7BC
:1009F000B7FE2846FFF723FFFFF7B2FEFFF791FE91
:100A00000A2001F042F870BD000C0140988121429B
:100A10000080214270B505460C46FFF760FEAE200F
:100A2000FFF70DFFFFF79CFE00B111E02846FFF72E
:100A300006FFFFF795FE00B10AE02046FFF7FFFE34
:100A4000FFF78EFE00B103E0FFF76BFE012070BDE3
:100A5000FFF767FE0020FAE770B50446FFF73FFE98
:100A6000AE20FFF7ECFEFFF77BFE00B119E0204659
:100A7000FFF7E5FEFFF774FE00B112E0FFF72FFE6F
:100A8000AF20FFF7DCFEFFF76BFE00B109E00020AE
:100A9000FFF702FF0546FFF7B1FEFFF742FE2846CB
:100AA00070BDFFF73EFE0020FAE72DE9F0478246D1
:100AB0000C46174600253E46FFF711FEAE20FFF715
:100AC000BEFEFFF74DFE00B13FE05046FFF7B7FE18
:100AD000FFF746FE00B138E0FFF701FEAF20FFF759
:100AE000AEFEFFF73DFE00B12FE029E00020FFF74A
:100AF000D3FE8046FFF761FE0020FFF7CDFE814662
:100B0000FFF75BFE49EA082024F825000020FFF7E4
:100B1000C3FE8046FFF751FE0020FFF7BDFE814671
:100B2000012E02D1FFF76AFE01E0FFF746FE49EA17
:100B3000082004EB85014880701EC6B2681CC5B24F
:100B4000002ED3D1FFF7EDFD00BFFFF7EAFDBDE8B2
:100B5000F08770B505460C460020FFF77DFF0120A9
:100B6000FFF77AFFFFF7BBFDAE20FFF768FEFFF748
:100B7000F7FD00B12BE02846FFF761FEFFF7F0FD1F
:100B800000B124E0FFF7ABFDAF20FFF758FEFFF701
:100B9000E7FD00B11BE00120FFF77EFE2070012081
:100BA000FFF77AFE60700120FFF776FEA07001204B
:100BB000FFF772FEE0700120FFF76EFE207100204B
:100BC000FFF76AFE6071FFF7ACFD002070BDFFF714
:100BD000A8FD4FF0FF30F9E710B540210920FFF7DD
:100BE00019FF40210920FFF715FF10BD08B50121AD
:100BF000082001F02FFB4FF40070ADF80000042036
:100C00008DF803006946444801F068F8FFF74EFD8F
:100C1000FFF7E2FFD0210220FFF7FCFE00210320B6
:100C2000FFF7F8FE00210420FFF7F4FE0021052065
:100C3000FFF7F0FE00210620FFF7ECFE0F21082051
:100C4000FFF7E8FE03210920FFF7E4FE27210A2031
:100C5000FFF7E0FE30210C20FFF7DCFE30210D20F5
:100C6000FFF7D8FE0A211020FFF7D4FE1021302014
:100C7000FFF7D0FE08BD70B504460D462A46214652
:100C8000AE20FFF7A6FE70BD70B504460D462A469D
:100C90002146AE20FFF77EFE70BDFEB506460C462F
:100CA00000203060206002A9FFF7EEFF02A90120BA
:100CB000FFF7EAFF06236A460721AE20FFF73BFE57
:100CC0009DF800502D043068284430609DF8015094
:100CD0002D023068284430609DF802503068284466
:100CE00030609DF803502D042068284420609DF852
:100CF00004502D022068284420609DF8055020688B
:100D0000284420603068C0F3110030602068C0F3D0
:100D100011002060FEBD0000000C014030B50C4603
:100D2000012213E050F82230114605E04D1E50F824
:100D3000255040F82150491E002904DD4D1E50F871
:100D400025509D42F2DC40F82130521CA242E9DBE2
:100D500030BDF0B503461546012217E051F8224098
:100D6000104605E0461E51F8266041F82060401EFE
:100D7000002808DD53F82470461E51F8266053F809
:100D80002660B742EEDC41F82040521CAA42E5DB67
:100D9000F0BD2DE9F04F05460C469246984629468F
:100DA00050462268FFF7D5FF4FF0FF3621E0D4F818
:100DB00000B0701C2060771C18E055F82710701CDC
:100DC00010B94FF0FF3001E055F82600A1EB000903
:100DD000C14503DCC8F10000814506DA55F827104B
:100DE0002268501C206045F822107F1C5F45E4DB20
:100DF000761C2068B042DADC28462168FFF78EFFB7
:100E0000BDE8F08FF0B505461C46059E0120002781
:100E10000F6030E052F82070B7422BDD52F820C04E
:100E2000471E52F82770BC4524DD012300E05B1CFF
:100E3000C718A74207DA52F8207000EB030C52F8EB
:100E40002CC06745F3D052F8207000EB030C52F829
:100E50002CC067450CDD0F680F2F09DAD1F800C0F0
:100E60000CF101070F6045F82C005F1C384402E0CC
:100E7000184400E0401C671E8742CBDCF0BD2DE922
:100E8000F84705460C4616461F46DDE90A9ADDF886
:100E900024803B46324621462846CDF80080FFF7A5
:100EA000B1FF4B46324621462846FFF772FF2068C5
:100EB000504501DA206800E050462060BDE8F88720
:100EC0002DE9FF4FC7B08846994600204690002480
:100ED00006E0479850F82410469808444690641C51
:100EE0004445F6DB4698B0FBF8F04690002408E055
:100EF000479850F824104698081AFE4941F82400F3
:100F0000641C4445F4DB002417E0FA4850F8241030
:100F10000246601C52F820000144A01C52F8200038
:100F20000144E01C52F820000F183846F91707EB6F
:100F30009171891042F82410641CB4F5F87FE4DB49
:100F400000240AE0EB49601C51F8200051F82410FD
:100F5000401AE94941F82400641CB4F5F77FF1DD3B
:100F600000240EE0E44951F824200B46611C53F89C
:100F70002110501800EBD07149101A4642F8241085
:100F8000641CB4F5F77FEDDB00251BE000204490E6
:100F90002C460BE0D84850F82410601BD74A32F892
:100FA0001020449801FB12004490641C681D844288
:100FB000F0DB40F27A41449890FBF1F0CE4941F8E1
:100FC00025006D1CB5F5F47FE0DD00204290002483
:100FD00010E0C94850F82400002803DDC64850F846
:100FE000240003E0C44850F82400404242990844D9
:100FF0004290641CB4F5F77FEBDD40F2EF114298AC
:1010000090FBF1F0429005210822429840F2EF1344
:10101000CDE901210090B84A41A913A8FFF72FFF9D
:10102000002012904198022821DB01240BE013A834
:1010300050F82410601E13AA52F82000091A1298C2
:1010400008441290641C41988442F0DB4198401E91
:10105000129991FBF0F0129041F27071129891FB8D
:10106000F0F15598016001215698017005E0A449FE
:1010700055980160002156980170002407E013A8DC
:1010800050F82400801C31A941F82400641C4198C8
:101090008442F4DB00240CE0479850F82400954982
:1010A00041F82400499850F82400964941F824005A
:1010B000641C4445F0DB0020439000242DE0012017
:1010C000459031A850F824A04FF0807040900AF16C
:1010D0000500B0F5F77F1FDC0A3800281CDD054647
:1010E00011E0844850F82510409881420ADA45986A
:1010F00008B1002045907F4850F82500409022A874
:1011000040F824506D1C0AF105008542E9DB459842
:1011100010B94398401C4390641C41988442CEDB34
:101120004398022808DA7648C9F80000002154984C
:1011300001704BB0BDE8F08F00242EE06D4951F8EE
:1011400024200B46611C53F821100A44A11C53F8BB
:1011500021100A44E11C53F821105018C11700EB6C
:10116000917189101A4642F82410664951F82420DA
:101170000B46611C53F821100A44A11C53F821109E
:101180000A44E11C53F821105018C11700EB91716B
:1011900089101A4642F82410641CB4F5F87FCDDBA0
:1011A000002005900026002404E0002006A941F854
:1011B0002400641C052CF8DB00240DE022A850F864
:1011C0002400B0F5FA7F06DD4D48C9F80000002183
:1011D00054980170ADE7641C43988442EEDB002410
:1011E000AEE04FF07F400E900D9022A9601C51F8A8
:1011F000200051F82410401A0A2879DD22A850F85E
:10120000245016E03B4850F825100D98814204DD2B
:10121000384850F825000D900B953A4850F82510A5
:101220000E98814204DD374850F825000E900C9549
:101230006D1C22A9601C51F82000A842E2DC601C51
:1012400051F820002F4951F8200022A951F824100C
:101250002C4A52F82110401A22A951F824200C9946
:10126000891A4843119022A9601C51F8200051F8B6
:101270002410411A119890FBF1F022A951F8241082
:10128000204A52F821100844119011460C9851F848
:1012900020101198081A119022A9601C51F8200002
:1012A000144951F8200022A951F82410114A52F88B
:1012B0002110401A22A951F824200B99891A484379
:1012C000109022A9601C51F8200051F82410411AF6
:1012D000109890FBF1F022A951F82410054A52F819
:1012E00021100844109011460C9851F820100BE082
:1012F00025E00000B0170020F00F0020DC2A0008D5
:1013000019FCFFFF801F00201098081A10900D99FB
:1013100011984843C01104900E9910984843C71182
:10132000002F0CDD052E0ADA049840B164210498E0
:10133000484390FBF7F006A941F82600761C641C90
:101340004398401EA0423FF74CAF314606A8FFF736
:10135000E5FC304606EBD0714FEA610BBBF1010FA3
:101360000CDDABF1010106AA52F8211052F82B2036
:10137000881800EBD0714910059103E006A850F8D9
:101380002B0005900598022817DD0598B82814DA77
:10139000059801F08BFB0D4908600D490598085C24
:1013A0000F900F98632801DD63200F900F98C9F804
:1013B000000001215498017005E00648C9F80000BA
:1013C00000215498017000BFB3E6000028000020FF
:1013D0001A2B000819FCFFFF0A2000BF011EA0F114
:1013E0000102D0B2FAD1704710B54FF48051FA48DB
:1013F00000F021FD4FF40051F74800F01CFDFFF70D
:10140000EBFF4FF48051F44800F017FDFFF7E4FFC5
:101410004FF40051F04800F010FDFFF7DDFF10BD64
:1014200010B54FF48051EC4800F007FD4FF4005127
:10143000E94800F000FDFFF7CFFF4FF48051E64888
:1014400000F0F9FC10BD10B54FF48051E24800F0F7
:10145000F2FCFFF7C1FF4FF40051DF4800F0EBFC56
:10146000FFF7BAFF4FF40051DB4800F0E6FCFFF74E
:10147000B3FF10BD70B5044600251FE004F08000E6
:1014800028B14FF48051D44800F0D5FC04E04FF46B
:101490008051D14800F0D1FCFFF79EFF4FF400517E
:1014A000CD4800F0C8FCFFF797FF4FF40051CA4841
:1014B00000F0C3FC6006040E681CC5B2082DDDDB1D
:1014C00070BD70B505460C46FFF78EFF7820FFF71C
:1014D000D1FFFFF7B8FF1CB14020FFF7CBFF02E0C0
:1014E0000020FFF7C7FFFFF7AEFF2846FFF7C2FF58
:1014F000FFF7A9FFFFF794FF70BD10B504461CB9B4
:101500000021A620FFF7DDFF012C03D10021A72039
:10151000FFF7D7FF10BD10B504463CB90021C82025
:10152000FFF7CFFF0021A120FFF7CBFF012C07D150
:101530000021C020FFF7C5FF0021A020FFF7C1FF59
:1015400010BD70B504460D4605F1B001C8B20021CA
:10155000FFF7B7FF04F00F000021FFF7B2FF1021E3
:1015600041EA14100021FFF7ACFF70BD10B5002157
:101570008D20FFF7A6FF00211420FFF7A2FF002116
:10158000AF20FFF79EFF10BD10B500218D20FFF7A3
:1015900098FF00211020FFF794FF0021AE20FFF7F5
:1015A00090FF10BD70B5002419E004F1B001C8B27D
:1015B0000021FFF786FF00210846FFF782FF002188
:1015C0001020FFF77EFF002505E001210020FFF736
:1015D00078FF681CC5B2802DF7DB601CC4B2082CF4
:1015E000E3DB70BD2DE9F04107460E469046A8F1B9
:1015F0002000C5B2802F02DD0027B01CC6B23146E4
:101600003846FFF79EFF002408E004EB0511734AFB
:10161000505C0121FFF755FF601CC4B2082CF4DBBD
:10162000701CC1B23846FFF78CFF002409E004EBC0
:1016300005110831694A505C0121FFF742FF601C27
:10164000C4B2082CF3DBBDE8F0812DE9F04104467B
:101650000F46154600260EE0AA5D39462046FFF7E4
:10166000C1FF802C02DD0024B81CC7B204F10800C1
:10167000C4B2701CC6B2A85D0028EDD1BDE8F081EF
:1016800010B50246012000E050430B1EA1F10104F9
:10169000E1B2F9D110BD2DE9F04107460E46904662
:1016A00000244FEA8815802F02DD0027701CC6B287
:1016B00031463846FFF745FF002407E04849485DBA
:1016C0000121FFF7FEFE6D1C601CC4B2102CF5DB7F
:1016D000701CC1B23846FFF734FF002407E04049D0
:1016E000485D0121FFF7EDFE6D1C601CC4B2102C9B
:1016F000F5DBB01CC1B23846FFF723FF002407E03A
:101700003749485D0121FFF7DCFE6D1C601CC4B247
:10171000102CF5DBF01CC1B23846FFF712FF002495
:1017200007E02F49485D0121FFF7CBFE6D1C601CCF
:10173000C4B2102CF5DBBDE8F0812DE9FF5F064651
:1017400091461F460E9C4FF0000A00255AE0781B78
:10175000401EC1B20A20FFF793FFB9FBF0F00A2147
:10176000B0FBF1F201FB1208BAF1000F23D1781E91
:10177000A84220DDB8F1000F1BD1102C0BD1A346DD
:1017800004EBDB71491001FB0561C8B2202201990D
:10179000FFF728FF0CE0202C0AD1A34604EBDB71F5
:1017A000491001FB0561C8B20B220199FFF773FFD5
:1017B00026E04FF0010A102C14D1A34604EBDB7194
:1017C000491001FB0561C8B208F13001CAB20199A4
:1017D000FFF708FF13E00000000C0140FA2D00089D
:1017E000EA340008202C0AD1A34604EBDB7149102F
:1017F00001FB0561C8B242460199FFF74CFF00BFEB
:10180000681CC5B2BD42A2DBBDE8FF9F2DE9F041D7
:1018100080460E4615460024002731464046FFF715
:1018200090FE00BF0AE0764A02EB8511085D0121B7
:10183000FFF747FE781CC7B2601CC4B2102CF2DB65
:10184000701CC1B24046FFF77CFE00240CE069002A
:10185000491C6B4A02EB4111085D0121FFF731FE83
:10186000781CC7B2601CC4B2102CF0DBBDE8F0815C
:1018700010B504460021B620FFF723FE6149097820
:1018800001F00F000021FFF71CFE5E4909781022CD
:1018900042EA11100021FFF714FE5B4911F8140011
:1018A0000121FFF70EFE0021B720FFF70AFE554980
:1018B000097801F00F000021FFF703FE5149097874
:1018C000102242EA11100021FFF7FBFD012101EB7C
:1018D00044014D4A505C0121FFF7F3FD494800786F
:1018E000401C48490870084600787F2801DD002028
:1018F000087010BD08B50121082000F0ABFC4FF4C2
:101900004050ADF8000014208DF8030003208DF83E
:10191000020069463D4800F0E1F94FF440513B4870
:1019200000F089FA642000F0B0F80021AE20FFF743
:10193000C8FD00210846FFF7C4FD00211020FFF775
:10194000C0FD0021D520FFF7BCFD00218020FFF75E
:10195000B8FD0021A820FFF7B4FD00213F20FFF7CC
:10196000B0FD0021D320FFF7ACFD00210846FFF7B2
:10197000A8FD00214020FFF7A4FD00218D20FFF7E6
:10198000A0FD00211420FFF79CFD00212020FFF77F
:1019900098FD00210220FFF794FD0021A120FFF710
:1019A00090FD0021C820FFF78CFD0021DA20FFF711
:1019B00088FD00211220FFF784FD00218120FFF720
:1019C00080FD0021EF20FFF77CFD0021D920FFF7EB
:1019D00078FD0021F120FFF774FD0021DB20FFF7E7
:1019E00070FD00213020FFF76CFD0021A620FFF7DD
:1019F00068FDFFF7D7FD0021AF20FFF762FD08BDAE
:101A0000EA3300082C000020EA370008000C0140EF
:101A100010B56FF0040000F0D4FE2E4800682E4987
:101A2000B0FBF1F02D4908700846007800EB40014A
:101A3000C1EBC0104FF6FF7101EAC00028490880D1
:101A400010BD0146254A12784A434FF0E0235A61FF
:101A500000229A611A46126942F001021A6100BF1F
:101A60004FF0E022106900F001021AB100F4803258
:101A7000002AF5D04FF0E022126922F001024FF067
:101A8000E0231A6100229A6170470146144A1288C5
:101A90004A434FF0E0235A6100229A611A461269C4
:101AA00042F001021A6100BF4FF0E022106900F01D
:101AB00001021AB100F48032002AF5D04FF0E02282
:101AC000126922F001024FF0E0231A6100229A61AC
:101AD0007047000014000020405489002E000020B0
:101AE0003000002010B54FF4A06000F01BFE10BDC8
:101AF000014600BF704700BF364A128802F040021C
:101B0000002AF9D0C2B2334B1B1D1A80704710B5A2
:101B100086B00446012144F2040000F09BFB2D48EE
:101B200000F0FCFB4FF40070ADF8140003208DF8BA
:101B3000160018208DF8170005A9274800F0CEF8E8
:101B40004FF48060ADF8140004208DF8170005A94B
:101B5000214800F0C3F825208DF8000003208DF8FF
:101B600001008DF8020001208DF80300684600F0A6
:101B7000DEFD01940020ADF80800ADF80A00ADF8D4
:101B80000C00ADF810000C20ADF80E0001A91148B2
:101B900000F007FC01210F4800F08FFC06B010BDDB
:101BA0002DE9F04107460D461646002400BF0CE023
:101BB000295D384600F0EEFC00BF8021384600F079
:101BC00057FD0028F9D0601CC4B2B442F0DBBDE878
:101BD000F0810000003801400008014009488047BA
:101BE00009480047FEE7FEE7FEE7FEE7FEE7FEE7FF
:101BF000FEE7FEE7FEE7FEE704480549054A064B17
:101C000070470000AB050008ED000008B027002079
:101C1000B02D0020B0290020B029002010B50446C6
:101C2000CC48844208D10121042000F02DFB002182
:101C3000042000F029FB46E0C748844208D1012176
:101C4000082000F021FB0021082000F01DFB3AE0F5
:101C5000C248844208D10121102000F015FB002168
:101C6000102000F011FB2EE0BD48844208D1012174
:101C7000202000F009FB0021202000F005FB22E0DD
:101C8000B848844208D10121402000F0FDFA00212B
:101C9000402000F0F9FA16E0B348844208D101214F
:101CA000802000F0F1FA0021802000F0EDFA0AE037
:101CB000AE48844207D10121801500F0E5FA0021E9
:101CC000A01500F0E1FA10BD10B50121084600F0A2
:101CD000DBFA0021012000F0D7FA10BD2DE9F04118
:101CE000024600250026002000230024002791F84A
:101CF00003C00CF00F0591F803C00CF0100CBCF100
:101D0000000F03D091F802C04CEA050591F800C01D
:101D1000BCF1000F31D0146800202BE04FF0010C13
:101D20000CFA00F3B1F800C00CEA03069E4220D181
:101D300083004FF00F0C0CFA03F7BC4305FA03FCC9
:101D40004CEA040491F803C0BCF1280F06D14FF00F
:101D5000010C0CFA00FCC2F814C00AE091F803C0B0
:101D6000BCF1480F05D14FF0010C0CFA00FCC2F891
:101D700010C0401C0828D1D31460B1F800C0BCF1D9
:101D8000FF0F34DD546800202EE000F1080C4FF006
:101D9000010808FA0CF3B1F800C00CEA03069E42F1
:101DA00021D183004FF00F0C0CFA03F7BC4305FA66
:101DB00003FC4CEA040491F803C0BCF1280F05D1E0
:101DC00000F1080C08FA0CF8C2F8148091F803C06E
:101DD000BCF1480F07D100F1080C4FF0010808FAD8
:101DE0000CF8C2F81080401C0828CED35460BDE81F
:101DF000F0814FF6FF710180022181700421C170D2
:101E000070470246002093680B400BB1012000E0B0
:101E1000002070470146886880B270470246002063
:101E2000D3680B400BB1012000E000207047014651
:101E3000C86880B2704701617047416170470AB15C
:101E4000016100E041617047C16070474FF480322A
:101E50000A438261816182618269826970470246B8
:101E60000020434B18684FF68073184040EA021078
:101E700008433F4B186070473E49C8617047F0B552
:101E80000A46002300240021002500F00046B6F198
:101E9000004F02D1364EF16901E0354E7168C0F352
:101EA000034583B200F44016B6F5401F08D121F077
:101EB00070612F4E766826F070662D4F7E6012E0BE
:101EC00000F48016B6F5801F06D1032606FA05F445
:101ED000A14341F0706106E0460D360103FA06F6B3
:101EE000B14341F0706122B1460D360103FA06F6A6
:101EF000314300F00046B6F1004F02D11C4EF161B3
:101F000001E01B4E7160F0BD30B500228B071C0F45
:101F10000F2303FA04F2164B08338C1053F82430C5
:101F20009343134C08348D1044F8253023468C100D
:101F300053F824308C07240F00FA04F423430C4C8C
:101F400008348D1044F8253030BD0A49DC31086072
:101F50007047000000080140000C014000100140E3
:101F60000014014000180140001C01400020014005
:101F70000000014000002042DF48006840F00100FE
:101F8000DD49086008464068DC490840DA49486095
:101F900008460068DA490840D749086008460068E2
:101FA00020F4802008600846406820F4FE00486065
:101FB0004FF41F0088607047CF49096821F48031D1
:101FC000CD4A11601146096821F480211160B0F5F5
:101FD000803F03D0B0F5802F0ED106E0C6490968D6
:101FE00041F48031C44A116007E0C349096841F4F3
:101FF000A021C14A116000E000BF00BF704710B5CA
:1020000001460022002300204A11012A02D1BA4CC5
:10201000236806E0022A02D1B74C236A01E0B64CDD
:10202000636A01F01F02012494401C400CB101209E
:1020300000E0002010BD38B50020009000240025ED
:1020400000BF3120FFF7DBFF05460098401C0090E1
:102050000098B0F5A06F01D0002DF2D03120FFF72D
:10206000CEFF08B1012400E00024204638BD01461F
:102070000020A14A106820F0F80040EAC10010607A
:102080007047A04908607047024600209A4B586884
:1020900020F47C1042EA01031843974B58607047C4
:1020A00098490866704701460020934A506820F01E
:1020B00003000843506070478F48406800F00C00F0
:1020C0007047014600208C4A506820F0F000084319
:1020D0005060704701460020874A506820F4E06055
:1020E00008435060704701460020834A506820F43E
:1020F000605040EAC1005060704729B17E4A527A70
:1021000002437D4B5A7204E07B4A527A82437A4BF7
:102110005A7270477B49D8310860704701460020E9
:10212000754A506820F440400843506070470021D1
:10213000714A20321170704A82F82010012802D0B2
:1021400004280AD104E001216B4A2032117005E015
:102150000521694A2032117000E000BF00BF7047BE
:102160006949086070476449096A0143624A11621B
:102170007047654944390860704730B50021002236
:10218000002400235C4D6D6805F00C0121B1042989
:1021900005D0082923D105E05C4D056022E05B4DA8
:1021A00005601FE0544D6D6805F47012524D6D6866
:1021B00005F48034022505EB92421CB9544D554379
:1021C00005600BE04C4D6D6805F400351DB1504DB8
:1021D0005543056002E04D4D5543056002E04B4D0F
:1021E000056000BF00BF444D6D6805F0F0010909AE
:1021F000484D6B5C0568DD4045603F4D6D6805F4FA
:10220000E061090A434D6B5C4568DD4085603A4DED
:102210006D6805F46051C90A3E4D6B5C4568DD4050
:10222000C560354D6D6805F44041890B3A4D6B5CD6
:10223000C568B5FBF3F5056130BD29B12E4A526979
:1022400002432D4B5A6104E02B4A526982432A4BC8
:102250005A61704729B1284A92690243264B9A6114
:1022600004E0254A92698243234B9A61704729B161
:10227000214AD2690243204BDA6104E01E4AD26946
:1022800082431D4BDA61704729B11B4AD268024371
:10229000194BDA6004E0184AD2688243164BDA60C0
:1022A000704729B1144A12690243134B1A6104E0C2
:1022B000114A12698243104B1A6170471249403922
:1022C000086070470F49C86470470B49C871704770
:1022D0000948406A40F080700749486270470146EB
:1022E0000020054A92680A400AB1012000E000205F
:1022F0007047014988727047001002400000FFF8E3
:10230000FFFFF6FE000042428004424200127A00C3
:1023100000093D003A0000204A00002010B50446A4
:10232000FB48844209D101218803FFF7ADFF00215A
:102330004FF48040FFF7A8FF32E0F648844209D10D
:1023400001214804FFF7ADFF00214FF40030FFF7F3
:10235000A8FF25E0F048844209D101218804FFF755
:10236000A0FF00214FF48020FFF79BFF18E0EB480F
:10237000844209D10121C804FFF793FF00214FF4E3
:102380000020FFF78EFF0BE0E548844208D10121D1
:102390000805FFF786FF00214FF48010FFF781FF4B
:1023A00010BD2DE9F04786B005460E460024A24632
:1023B00000BFA1460027B08900B100BF2F462C8A7C
:1023C0004CF6FF700440F08804432C82AC894EF632
:1023D000F3100440B08831890843718908430443ED
:1023E000AC81AC8A4FF6FF400440B0890443AC8214
:1023F00001A8FFF7C2FEC648874202D1DDF810A04F
:1024000001E0DDF80CA0A88900F4004040B10AEB1F
:10241000CA0000EB0A1031684900B0FBF1F807E090
:102420000AEBCA0000EB0A1031688900B0FBF1F832
:102430006420B8FBF0F004012009642101FB10893D
:10244000A88900F4004040B1322000EBC900B0FB85
:10245000F1F000F00700044308E0322000EB09101F
:102460006421B0FBF1F000F00F0004432C8106B0B2
:10247000BDE8F0874FF41651016000218180C180D2
:1024800001810C21418100218181704710B50246F4
:102490000020108A4FF2FF0318400B884C8823431A
:1024A0008C882343CC8823431843108210BD00211D
:1024B000018041808180C180704721B1828942F4CE
:1024C0000052828104E082894DF6FF731A408281B6
:1024D0007047F0B50346002400260025002040F692
:1024E0006A17B94200D100BF1846C1F3421401F087
:1024F0001F06012707FA06F5012C01D10C3004E074
:10250000022C01D1103000E014301AB107682F43BB
:10251000076002E00768AF430760F0BD1AB1838A25
:102520000B43838202E0838A8B4383827047028A53
:102530004FF6F0731A400282028A0A430282704701
:1025400082894FF2FF731A40828182890A43828115
:10255000704721B1828942F00202828104E08289BF
:102560004FF6FD731A4082817047028A4FF6DF737F
:102570001A400282028A0A430282704721B1028A0B
:1025800042F48042028204E0028A4BF6FF731A4052
:1025900002827047C1F30802828070470146888832
:1025A000C0F308007047818941F0010181817047C3
:1025B000028BD2B20283028B42EA0122028370476D
:1025C000028B02F47F420283028B0A43028370472C
:1025D00021B1828A42F02002828204E0828A4FF690
:1025E000DF731A408282704721B1828A42F0100262
:1025F000828204E0828A4FF6EF731A40828270472B
:1026000021B1828A42F00802828204E0828A4FF677
:10261000F7731A408282704721B1828942F40042E6
:10262000828103E08289C2F30E028281704721B168
:10263000828A42F40062828204E0828A4FF2FF734F
:102640001A4082827047828A4FF6FB731A40828258
:10265000828A0A438282704721B1828A42F0020252
:10266000828204E0828A4FF6FD731A4082827047AC
:1026700002460020B1F5007F00D100BF13880B4057
:102680000BB1012000E00020704701F40072B2F5A8
:10269000007F00D100BFCA430280704770B5024678
:1026A000002400230025002040F66A16B14200D124
:1026B00000BFC1F3421501F01F03012606FA03F320
:1026C000012D02D19689334006E0022D02D1168AEF
:1026D000334001E0968A33400C12012606FA04F4D6
:1026E0001688344013B10CB1012000E0002070BD09
:1026F00010B50022002340F66A14A14200D100BFA9
:102700000A1201249440A3B2DC43048010BD0000EF
:10271000003801400044004000480040004C0040A8
:102720000050004031490143314A1160704770B593
:10273000002100230F22C47804B32D4C246804F434
:10274000E064C4F5E064210AC1F10403CA4044789E
:1027500004FA03F18478144021430901254C0678DA
:10276000A155047804F01F050124AC4005786D11D3
:10277000AD0005F1E025C5F8004109E0047804F05A
:102780001F050124AC401C4D0678761145F8264003
:1027900070BD1A4A0A400243154B1B1F1A6070474E
:1027A00039B1134A121D12680243114B1B1D1A60E6
:1027B00006E00F4A121D126882430D4B1B1D1A6062
:1027C0007047042808D14FF0E021096941F0040165
:1027D0004FF0E022116107E04FF0E021096921F09C
:1027E00004014FF0E0221161704700000000FA057B
:1027F0000CED00E000E400E080E100E080FFFF1F5E
:10280000704700000FB4044910B503AA029800F005
:1028100005F910BC5DF814FB340000200FB41CB5A2
:10282000074B06AA7B4469460090059800F0DDF846
:102830000020694600F0ECF81CBC5DF814FB0000B9
:10284000E90100002DE9F0410E4604460020206217
:102850002046E168884730B3252805D0D4E9012116
:102860009047206A401CF2E7E1682046002788472D
:10287000050018D0A5F14100192802D820354FF4E1
:1028800000673246294620462760FDF769FC40B1C3
:10289000012804D0F61D26F007060836D8E7361DB5
:1028A000D6E72846DAE7206ABDE8F0812DE9F04155
:1028B0000646002410687529314616A510D0AFF3DE
:1028C0000080002802DA404213A507E031688A0739
:1028D00001D512A502E0490704D511A5012401E0A4
:1028E000AFF3008000210A2206F1240709E0B0FBC3
:1028F000F2FCB0FBF2F302FB1C00303078541846B7
:10290000491C0028F3D123462A463046BDE8F04151
:1029100000F00CB8000000002D0000002B000000AB
:102920002000000070477047704770472DE9F0475E
:102930000D4699469246044600F12408016888062F
:1029400004D5E06921F01001216000E00120A842D7
:1029500001DD471B00E00027A1697A1902EB09009D
:10296000081AA0612078C00602D42046AFF3008088
:10297000002608E0D4E901211AF806009047206AF1
:10298000401C761C20624E45F4DB2078C0060AD538
:102990002046AFF3008006E0D4E9012130209047C3
:1029A000206A401C2062381EA7F10107F4DC07E012
:1029B000D4E9012118F805009047206A401C2062E4
:1029C000281EA5F10105F3DC2046AFF30080207836
:1029D000000602D50220BDE8F0870120FBE70000D9
:1029E00001694A1C02610878704700B58FB0CDE9D3
:1029F00001310021059105497944CDE903101146C3
:102A00006846FFF71FFF0FB000BD0000E5FFFFFFA6
:102A10000A6802F8010B0A6070470000074B70B5A6
:102A20000D467B44FFF7E1FF0446284600F008F816
:102A300010B14FF0FF3070BD204670BDD1F0FFFFE8
:102A4000007B00F080007047754600F02BF8AE4622
:102A500005006946534620F00700854618B020B5AA
:102A6000FFF7CAF8BDE820404FF000064FF000071E
:102A70004FF000084FF0000B21F00701AC46ACE826
:102A8000C009ACE8C009ACE8C009ACE8C0098D4693
:102A9000704710B50446AFF300802046BDE81040F3
:102AA000FDF770BB004870475027002010F0004130
:102AB00048BF4042B0FA80F310FA03F2C3F19D031D
:102AC0000BD051EAC35101EB1220530638BF7047B7
:102AD00000F1010008BF20F0010070472900140137
:102AE00000021401290000000000000000000000A6
:102AF00000000000000000000000000000000000D6
:102B000000000000000000000000000000000000C5
:102B1000000000000000000000005F5F5F60606078
:102B20006161616161626262626263636363636384
:102B30006363646464646464646464646464646457
:102B40006464646464646363636363636363626251
:102B50006262626261616161606060605F5F5F5E6E
:102B60005E5E5D5D5D5C5C5C5B5B5A5A59595958B1
:102B70005857575656555554545352525151505018
:102B80004F4E4E4D4C4C4B4A4A49484847464545A6
:102B90004443424241403F3E3E3D3C3B3A39383857
:102BA00037363534333231302F2E2D2C2B2A29282D
:102BB000272625242322211F1E1D1C1B1A19171628
:102BC00015141311100F0E0C0B0A0907060503024A
:102BD00001000000000000000000002F00000000C5
:102BE0000700070000147F147F1400242A7F2A1294
:102BF0000062640813230036495522500000050383
:102C0000000000001C224100000041221C000014B2
:102C1000083E08140008083E0808000000A06000F4
:102C20000008080808080000606000000020100884
:102C30000402003E5149453E0000427F40000042F0
:102C400061514946002141454B31001814127F1053
:102C5000002745454539003C4A4949300001710982
:102C6000050300364949493600064949291E000036
:102C700036360000000056360000000814224100DD
:102C8000001414141414000041221408000201510D
:102C9000090600324959513E007C1211127C007F16
:102CA00049494936003E41414122007F4141221CB1
:102CB000007F49494941007F09090901003E414916
:102CC000497A007F0808087F0000417F410000200A
:102CD00040413F01007F08142241007F40404040B6
:102CE000007F020C027F007F0408107F003E4141FC
:102CF000413E007F09090906003E4151215E007FE7
:102D0000091929460046494949310001017F01015D
:102D1000003F4040403F001F2040201F003F403800
:102D2000403F00631408146300070870080700613F
:102D30005149454300007F41410000552A552A551D
:102D4000000041417F0000040201020400404040B5
:102D50004040000001020400002054545478007FD9
:102D60004844443800384444442000384444487FB0
:102D700000385454541800087E0901020018A4A415
:102D8000A47C007F080404780000447D40000040DB
:102D900080847D00007F102844000000417F4000B7
:102DA000007C04180478007C08040478003844444B
:102DB000443800FC242424180018242418FC007C27
:102DC0000804040800485454542000043F444020A0
:102DD000003C4040207C001C2040201C003C403037
:102DE000403C004428102844001CA0A0A07C0044C3
:102DF00064544C4414141414141400000000000013
:102E000000000000000000000000000000F80000CA
:102E10000000000000333000000000100C06100C11
:102E20000600000000000000000040C07840C078AC
:102E30004000043F04043F040400007088FC083094
:102E40000000001820FF211E0000F008F000E0182C
:102E5000000000211C031E211E0000F008887000E5
:102E600000001E2123241927211010160E00000037
:102E700000000000000000000000000000E0180456
:102E80000200000000071820400000020418E000C3
:102E900000000040201807000000404080F0804003
:102EA00040000202010F01020200000000F00000D9
:102EB00000000101011F01010100000000000000ED
:102EC000000080B070000000000000000000000062
:102ED00000000001010101010101000000000000EB
:102EE00000000030300000000000000000008060A2
:102EF0001804006018060100000000E01008081027
:102F0000E000000F102020100F00001010F800004B
:102F100000000020203F20200000007008080888E2
:102F200070000030282422213000003008888848B2
:102F300030000018202020110E000000C02010F8E2
:102F4000000000070424243F240000F808888808B3
:102F500008000019212020110E0000E010888818B8
:102F60000000000F112020110E0000380808C8389A
:102F700008000000003F000000000070880808887A
:102F80007000001C222121221C0000E01008081003
:102F9000E0000000312222110F00000000C0C0003C
:102FA0000000000000303000000000000080000041
:102FB0000000000080600000000000008040201041
:102FC000080000010204081020004040404040403A
:102FD000400004040404040404000008102040809D
:102FE00000000020100804020100007048080808D2
:102FF000F0000000003036010000C030C828E810A2
:10300000E0000718272423140B000000C038E0005C
:103010000000203C23020227382008F888888870A6
:103020000000203F202020110E00C03008080808B2
:103030003800071820202010080008F80808081099
:10304000E000203F202020100F0008F88888E808C2
:103050001000203F20202320180008F88888E80866
:103060001000203F200003000000C030080808388E
:10307000000007182020221E020008F8080000089F
:10308000F808203F210101213F20000808F8080826
:1030900000000020203F2020000000000808F80861
:1030A0000800C08080807F00000008F888C02818D1
:1030B0000800203F20012638200008F80800000002
:1030C0000000203F20202020300008F8F800F8F809
:1030D0000800203F003F003F200008F830C00008F3
:1030E000F808203F200007183F00E01008080810EB
:1030F000E0000F10202020100F0008F80808080832
:10310000F000203F210101010000E0100808081034
:10311000E0000F18242438504F0008F88888888869
:103120007000203F2000030C302000708808080841
:1031300038000038202121221C00180808F808084F
:1031400018000000203F2000000008F808000008D8
:10315000F808001F202020201F000878880000C8E1
:103160003808000007380E010000F80800F80008D1
:10317000F800033C0700073C0300081868808068DB
:10318000180820302C03032C30200838C800C83819
:1031900008000000203F2000000010080808C83880
:1031A00008002038262120201800000000FE02021E
:1031B00002000000007F40404000000C30C00000D2
:1031C0000000000000010638C00000020202FE00FC
:1031D0000000004040407F000000000004020202A6
:1031E00004000000000000000000000000000000DB
:1031F00000008080808080808080000202040000C7
:1032000000000000000000000000000080808080BE
:1032100000000019242222223F2008F800808000AC
:103220000000003F112020110E000000008080806F
:103230000000000E11202020110000000080808876
:10324000F800000E112020103F20000080808080B8
:103250000000001F222222221300008080F08888B4
:1032600088180020203F20200000000080808080FF
:103270008000006B94949493600008F80080808034
:103280000000203F210000203F200080989800008F
:1032900000000020203F20200000000000809898BF
:1032A000000000C08080807F000008F8000080805F
:1032B0008000203F24022D302000000808F8000084
:1032C00000000020203F202000008080808080803F
:1032D0008000203F20003F20003F808000808080D1
:1032E0000000203F210000203F20000080808080DF
:1032F0000000001F202020201F0080800080800010
:10330000000080FFA12020110E00000000808080BE
:103310008000000E112020A0FF808080800080802F
:10332000800020203F21200001000000808080805C
:1033300080000033242424241900008080E0808051
:1033400000000000001F202000008080000000809E
:103350008000001F202020103F20808080000080FF
:10336000808000010E30080601008080008000800F
:1033700080800F300C030C300F00008080008080B4
:1033800080000020312E0E312000808080000080DF
:10339000808080818E70180601000080808080808F
:1033A00080000021302C2221300000000000807CB1
:1033B000020200000000003F404000000000FF004B
:1033C000000000000000FF0000000002027C8000FE
:1033D00000000040403F0000000000060101020222
:1033E000040400000000000000000000800000E075
:1033F00002041800000040800000000000000000EF
:1034000000000000000000000000100C0300003F5E
:1034100040404040407800010E00000000000000E5
:10342000000000000000000000000014A444243448
:10343000AD6624940444A4140000000000000000C1
:103440000000000000000000000008090808090949
:1034500009FD09090B080809080000000000000028
:10346000000000000000000000000000F80808F85C
:103470000C0B08F80808F80000000000000000002D
:103480000000000000000000000040407F40407F3E
:103490004040407F40407F4040000000000000006E
:1034A000000000000000000000000824236AAA2A8F
:1034B000AA6A2A2A2AEA020200000000000000008C
:1034C000000000000000000000001011151515FF9D
:1034D00015151511100F3040F80000000000000015
:1034E000000000000000000000000000F0F8FC3CBC
:1034F0001C1C1C1C3CFCF8F000000000FFFFFF003F
:103500000000000000FFFFFF00000000FFFFFF00C1
:103510000000000000FFFFFF000000000F1F3F3C05
:10352000383838383C3F1F0F000000000000C0E072
:10353000F0F8FCFC000000000000000000000000AB
:1035400000FFFFFF0000000000000000000000007E
:1035500000FFFFFF0000000000000000000000006E
:10356000003F3F3F0000000000000000F0F8FC3C7E
:103570001C1C1C1C3CFCF8F00000000007070700A6
:10358000000080C0E0FF7F3F00000000E0F0F83C5A
:103590001E0F070301000000000000003F3F3F38FE
:1035A00038383838383C3C3C00000000F0F8FC3C2F
:1035B0001C1C1C1C3CFCF8F0000000000707C7C0E6
:1035C000C0C0C0C0E0FF7F3F00000000E0E0E101BC
:1035D0000101010103FFFFFE000000000F1F3F3C3F
:1035E000383838383C3F1F0F000000000000000052
:1035F00080E0F078FCFCFC000000000080E0F87E39
:103600001F070100FFFFFF00000000003F3F3F38A1
:1036100038383838FFFFFF3838000000000000005D
:10362000000000003F3F3F0000000000FCFCFC1CCD
:103630001C1C1C1C1C1C1C1C00000000FFFFFFF0BD
:103640007838383878F8F0E000000000F0F0F0004A
:103650000000000000FFFFFF000000000F1F3F3CC4
:10366000383838383C3F1F0F00000000F0F8FC3CB1
:103670001C1C1C1C3CFCF8F000000000FFFFFFC0FD
:10368000E0E0E0E0E0E1C18100000000FFFFFF01B9
:103690000000000001FFFFFF000000000F1F3F3C83
:1036A000383838383C3F1F0F000000003C3C3C1CC1
:1036B0001C1C1C9CFCFC7C1C00000000000000800A
:1036C000E0F87E1F0701000000000000000000FF7E
:1036D000FFFF000000000000000000000000003FAD
:1036E0003F3F00000000000000000000F0F8FC3C3C
:1036F0001C1C1C1C3CFCF8F0000000003F7FFFE09D
:10370000C0C0C0C0E0FF7F3F00000000FEFFFF031D
:103710000101010103FFFFFE000000000F1F3F3CFD
:10372000383838383C3F1F0F00000000F0F8FC3CF0
:103730001C1C1C1C3CFCF8F000000000FFFFFFC03C
:1037400080808080C0FFFFFF00000000C0C1C30375
:103750000303030301FFFFFF000000000F1F3F3CB6
:10376000383838383C3F1F0F0000000000000000D0
:103770008080808000000000000000000000000F3A
:103780001F1F1F1F0F00000000000000000000F0BE
:10379000F8F8F8F8F0000000000000000000000059
:1037A0000101010100000000000000000000000015
:1037B0000000000000000000000000000000000009
:1037C00000000000000000000000000000000000F9
:1037D00000000000000000000000000000000000E9
:1037E000000000000000000000000000008000C099
:1037F00000E000F000F800FC00FE00FF80FFC0FFCA
:10380000E0FFF0FFF8FFFCFFFEFFFFFF2C38000891
:103810000000002050000000280100087C3800084B
:1038200050000020602D000044010008000000004E
:103830000000000000000000000000000000000088
:1038400000A24A040000000000000000010203047E
:10385000060708090000000000000000000000004A
:10386000000000000000000000000102030401024B
:0C38700003040607080902040608000013
:04000005080000ED02
:00000001FF
